:04000005080003915B
:020000040800F2
:100000000080012091030008E1030008E1030008DB
:10001000E1030008E1030008E1030008000000001C
:10002000000000000000000000000000E1030008E4
:10003000E103000800000000E1030008E1030008FC
:1000400000000000E1030008E1030008E1030008EC
:10005000E1030008E1030008E1030008E1030008F0
:10006000E1030008E1030008E1030008E1030008E0
:10007000E1030008E1030008E1030008E1030008D0
:10008000E1030008E1030008E103000800000000AC
:10009000000000000000000000000000E103000874
:1000A000E1030008E1030008E1030008E1030008A0
:1000B000E1030008E1030008E1030008E103000890
:1000C000E1030008E1030008E1030008E103000880
:1000D000E1030008E1030008E1030008000000005C
:1000E000E1030008E1030008E1030008000000004C
:1000F000000000000000000000000000E103000814
:1001000000000000E1030008E1030008E10300082B
:1001100000000000000000000000000000000000DF
:10012000E1030008E1030008E1030008E10300081F
:10013000E1030008000000000000000000000000D3
:10014000000000000000000000000000E1030008C3
:10015000E1030008E1030008E1030008E1030008EF
:10016000E1030008E10300080000000000000000B7
:10017000000000000000000000000000000000007F
:10018000000000000000000000000000000000006F
:10019000E103000880B485B000AF78607B684FF45D
:1001A000C86202FB03F3FB6000BFFB685A1EFA60E3
:1001B000002BFAD100BF00BF1437BD465DF8047BA9
:1001C0007047000080B500AF074B02221A60012083
:1001D000FFF7E0FF044B4FF400321A600120FFF7F5
:1001E000D9FF00BF80BD00BF1804024080B582B0B7
:1001F00000AF0346FB71094B4FF480321A60084B85
:100200001B6803F47F42FB79054913430B60FFF73A
:10021000D9FF00BF0837BD4680BD00BF18040240AB
:100220001408024080B582B000AF0346FB71084B52
:1002300001221A60074B1B6803F47F42FB790549D2
:1002400013430B60FFF7BEFF00BF0837BD4680BDFC
:10025000180402401408024080B500AF154B1B681B
:10026000144A43F006031360134B1B681B0C1B045A
:10027000114A43F4AA4343F0550313600F4B1B6824
:1002800023F00F030D4A43F0050313601420FFF71A
:1002900081FF3820FFF7AAFF0C20FFF7A7FF0620F9
:1002A000FFF7A4FF0120FFF7A1FF0220FFF772FF75
:1002B00000BF80BD30380240000802400004024008
:1002C00080B582B000AF786006E07B685A1C7A6027
:1002D0001B781846FFF7A6FF7B681B78002BF4D12C
:1002E00000BF00BF0837BD4680BD000080B582B0AA
:1002F00000AF174B1A68174B1340B3F1005F04D0DF
:100300001548FFF7DDFF00BFFDE7144B1B687B605E
:100310007B683B6072B6124B1B68114A43F00103C5
:100320001360104B00221A600D4B1B680C4A23F01F
:10033000807323F4803313600B4B054A1A60044B1F
:100340001B689D463B68984700BF0837BD4680BD87
:10035000008000080000FE2F44040008048000080C
:10036000003802400838024008ED00E080B500AFD8
:10037000FFF772FF0548FFF7A3FF40F6B830FFF71D
:1003800009FFFFF7B3FF0023184680BD50040008A3
:100390000D488546AFF300800C480D490D4A0023F7
:1003A00002E0D458C4500433C4188C42F9D30A4A2A
:1003B0000A4C002301E013600432A242FBD300F098
:1003C00011F8FFF7D3FFFEE70080012000000020B6
:1003D0000000002060040008000000200000002051
:1003E000FEE7000070B50D4D0D4C641BA4100026F7
:1003F000A64209D10B4D0C4C00F018F8641BA41058
:100400000026A64205D170BD55F8043B9847013639
:10041000EEE755F8043B98470136F2E7000000008C
:10042000000000000000000000000000F8B500BF60
:10043000F8BC08BC9E467047F8B500BFF8BC08BCC5
:100440009E467047204E6F204170702100000000D2
:10045000426F6F746C6F616465722E2E2E00000007
:10800000008001204D8300089D8300089D830008A7
:108010009D8300089D8300089D83000800000000E8
:108020000000000000000000000000009D83000828
:108030009D830008000000009D8300089D830008C8
:10804000000000009D8300089D8300089D830008B8
:108050009D8300089D8300089D8300089D83000880
:108060009D8300089D8300089D8300089D83000870
:108070009D8300089D8300089D8300089D83000860
:108080009D8300089D8300089D8300080000000078
:108090000000000000000000000000009D830008B8
:1080A0009D8300089D8300089D8300089D83000830
:1080B0009D8300089D8300089D8300089D83000820
:1080C0009D8300089D8300089D8300089D83000810
:1080D0009D8300089D8300089D8300080000000028
:1080E0009D8300089D8300089D8300080000000018
:1080F0000000000000000000000000009D83000858
:10810000000000009D8300089D8300089D830008F7
:10811000000000000000000000000000000000005F
:108120009D8300089D8300089D8300089D830008AF
:108130009D83000800000000000000000000000017
:108140000000000000000000000000009D83000807
:108150009D8300089D8300089D8300089D8300087F
:108160009D8300089D8300080000000000000000BF
:1081700000000000000000000000000000000000FF
:1081800000000000000000000000000000000000EF
:108190009D83000880B485B000AF78607B684FF4A1
:1081A000C86202FB03F3FB6000BFFB685A1EFA6063
:1081B000002BFAD100BF00BF1437BD465DF8047B29
:1081C0007047000080B500AF074B02221A60012003
:1081D000FFF7E0FF044B4FF400321A600120FFF775
:1081E000D9FF00BF80BD00BF1804024080B582B037
:1081F00000AF0346FB71094B4FF480321A60084B05
:108200001B6803F47F42FB79054913430B60FFF7BA
:10821000D9FF00BF0837BD4680BD00BF180402402B
:108220001408024080B582B000AF0346FB71084BD2
:1082300001221A60074B1B6803F47F42FB79054952
:1082400013430B60FFF7BEFF00BF0837BD4680BD7C
:10825000180402401408024080B500AF154B1B689B
:10826000144A43F006031360134B1B681B0C1B04DA
:10827000114A43F4AA4343F0550313600F4B1B68A4
:1082800023F00F030D4A43F0050313601420FFF79A
:1082900081FF3820FFF7AAFF0C20FFF7A7FF062079
:1082A000FFF7A4FF0120FFF7A1FF0220FFF772FFF5
:1082B00000BF80BD30380240000802400004024088
:1082C00080B584B000AF03460A46FB711346BB710C
:1082D000FB79002B01D1802300E0C023FB73FA7BE4
:1082E000BB791344FB73FB7B1846FFF77FFF00BF8E
:1082F0001037BD4680BD80B582B000AF786006E023
:108300007B685A1C7A601B781846FFF78BFF7B68E6
:108310001B78002BF4D100BF00BF0837BD4680BDDD
:1083200080B500AF064B074A1A60FFF795FF0021A2
:108330000120FFF7C5FF0448FFF7DDFF00BFFDE7A1
:1083400008ED00E000800008008400080D48854624
:10835000AFF300800C480D490D4A002302E0D458C9
:10836000C4500433C4188C42F9D30A4A0A4C00237F
:1083700001E013600432A242FBD300F011F8FFF7D2
:10838000CFFFFEE700800120000000200000002059
:10839000108400080000002000000020FEE700001C
:1083A00070B50D4D0D4C641BA4100026A64209D1DA
:1083B0000B4D0C4C00F018F8641BA4100026A642CC
:1083C00005D170BD55F8043B98470136EEE755F8E6
:1083D000043B98470136F2E700000000000000006F
:1083E0000000000000000000F8B500BFF8BC08BCA9
:1083F0009E467047F8B500BFF8BC08BC9E46704763
:108400004170706C69636174696F6E2100000000D7
:00000001FF
